{"abi":[{"type":"constructor","inputs":[],"stateMutability":"nonpayable"},{"type":"function","name":"allowance","inputs":[{"name":"_owner","type":"address","internalType":"address"},{"name":"_spender","type":"address","internalType":"address"}],"outputs":[{"name":"remaining","type":"uint256","internalType":"uint256"}],"stateMutability":"view"},{"type":"function","name":"approve","inputs":[{"name":"_spender","type":"address","internalType":"address"},{"name":"_value","type":"uint256","internalType":"uint256"}],"outputs":[{"name":"success","type":"bool","internalType":"bool"}],"stateMutability":"nonpayable"},{"type":"function","name":"balanceOf","inputs":[{"name":"_owner","type":"address","internalType":"address"}],"outputs":[{"name":"balance","type":"uint256","internalType":"uint256"}],"stateMutability":"view"},{"type":"function","name":"decimals","inputs":[],"outputs":[{"name":"","type":"uint8","internalType":"uint8"}],"stateMutability":"view"},{"type":"function","name":"name","inputs":[],"outputs":[{"name":"","type":"string","internalType":"string"}],"stateMutability":"view"},{"type":"function","name":"symbol","inputs":[],"outputs":[{"name":"","type":"string","internalType":"string"}],"stateMutability":"view"},{"type":"function","name":"totalSupply","inputs":[],"outputs":[{"name":"","type":"uint256","internalType":"uint256"}],"stateMutability":"view"},{"type":"function","name":"transfer","inputs":[{"name":"_to","type":"address","internalType":"address"},{"name":"_value","type":"uint256","internalType":"uint256"}],"outputs":[{"name":"success","type":"bool","internalType":"bool"}],"stateMutability":"nonpayable"},{"type":"function","name":"transferFrom","inputs":[{"name":"_from","type":"address","internalType":"address"},{"name":"_to","type":"address","internalType":"address"},{"name":"_value","type":"uint256","internalType":"uint256"}],"outputs":[{"name":"success","type":"bool","internalType":"bool"}],"stateMutability":"nonpayable"},{"type":"function","name":"transferWithCallback","inputs":[{"name":"recipient","type":"address","internalType":"address"},{"name":"amount","type":"uint256","internalType":"uint256"},{"name":"data","type":"bytes","internalType":"bytes"}],"outputs":[{"name":"","type":"bool","internalType":"bool"}],"stateMutability":"nonpayable"},{"type":"event","name":"Approval","inputs":[{"name":"owner","type":"address","indexed":true,"internalType":"address"},{"name":"spender","type":"address","indexed":true,"internalType":"address"},{"name":"value","type":"uint256","indexed":false,"internalType":"uint256"}],"anonymous":false},{"type":"event","name":"Transfer","inputs":[{"name":"from","type":"address","indexed":true,"internalType":"address"},{"name":"to","type":"address","indexed":true,"internalType":"address"},{"name":"value","type":"uint256","indexed":false,"internalType":"uint256"}],"anonymous":false}],"bytecode":{"object":"0x608060405234801561001057600080fd5b5060408051808201909152600981526804261736545524332360bc1b602082015260009061003e908261014c565b5060408051808201909152600681526504245524332360d41b6020820152600190610069908261014c565b506002805460ff1916601290811790915561008590600a610309565b610093906305f5e10061031c565b600381905533600090815260046020526040902055610333565b634e487b7160e01b600052604160045260246000fd5b600181811c908216806100d757607f821691505b6020821081036100f757634e487b7160e01b600052602260045260246000fd5b50919050565b601f82111561014757806000526020600020601f840160051c810160208510156101245750805b601f840160051c820191505b818110156101445760008155600101610130565b50505b505050565b81516001600160401b03811115610165576101656100ad565b6101798161017384546100c3565b846100fd565b6020601f8211600181146101ad57600083156101955750848201515b600019600385901b1c1916600184901b178455610144565b600084815260208120601f198516915b828110156101dd57878501518255602094850194600190920191016101bd565b50848210156101fb5786840151600019600387901b60f8161c191681555b50505050600190811b01905550565b634e487b7160e01b600052601160045260246000fd5b6001815b600184111561025b5780850481111561023f5761023f61020a565b600184161561024d57908102905b60019390931c928002610224565b935093915050565b60008261027257506001610303565b8161027f57506000610303565b8160018114610295576002811461029f576102bb565b6001915050610303565b60ff8411156102b0576102b061020a565b50506001821b610303565b5060208310610133831016604e8410600b84101617156102de575081810a610303565b6102eb6000198484610220565b80600019048211156102ff576102ff61020a565b0290505b92915050565b60006103158383610263565b9392505050565b80820281158282048414176103035761030361020a565b610a71806103426000396000f3fe608060405234801561001057600080fd5b506004361061009e5760003560e01c806370a082311161006657806370a082311461012d57806395d89b4114610156578063a9059cbb1461015e578063d313919514610171578063dd62ed3e1461018457600080fd5b806306fdde03146100a3578063095ea7b3146100c157806318160ddd146100e457806323b872dd146100fb578063313ce5671461010e575b600080fd5b6100ab6101bd565b6040516100b8919061075d565b60405180910390f35b6100d46100cf3660046107ac565b61024b565b60405190151581526020016100b8565b6100ed60035481565b6040519081526020016100b8565b6100d46101093660046107d6565b6102b8565b60025461011b9060ff1681565b60405160ff90911681526020016100b8565b6100ed61013b366004610813565b6001600160a01b031660009081526004602052604090205490565b6100ab610492565b6100d461016c3660046107ac565b61049f565b6100d461017f366004610835565b610591565b6100ed6101923660046108bf565b6001600160a01b03918216600090815260056020908152604080832093909416825291909152205490565b600080546101ca906108f2565b80601f01602080910402602001604051908101604052809291908181526020018280546101f6906108f2565b80156102435780601f1061021857610100808354040283529160200191610243565b820191906000526020600020905b81548152906001019060200180831161022657829003601f168201915b505050505081565b3360008181526005602090815260408083206001600160a01b038716808552925280832085905551919290917f8c5be1e5ebec7d5bd14f71427d1e84f3dd0314c0f7b2291e5b200ac8c7c3b925906102a69086815260200190565b60405180910390a35060015b92915050565b6000826001600160a01b0381166102ea5760405162461bcd60e51b81526004016102e19061092c565b60405180910390fd5b6001600160a01b0385166000908152600460205260409020548311156103225760405162461bcd60e51b81526004016102e190610955565b6001600160a01b03851660009081526005602090815260408083203384529091529020548311156103a65760405162461bcd60e51b815260206004820152602860248201527f45524332303a207472616e7366657220616d6f756e74206578636565647320616044820152676c6c6f77616e636560c01b60648201526084016102e1565b6001600160a01b038516600090815260046020526040812080548592906103ce9084906109b1565b90915550506001600160a01b038416600090815260046020526040812080548592906103fb9084906109c4565b90915550506001600160a01b0385166000908152600560209081526040808320338452909152812080548592906104339084906109b1565b92505081905550836001600160a01b0316856001600160a01b03167fddf252ad1be2c89b69c2b068fc378daa952ba7f163c4a11628f55a4df523b3ef8560405161047f91815260200190565b60405180910390a3506001949350505050565b600180546101ca906108f2565b6000826001600160a01b0381166104c85760405162461bcd60e51b81526004016102e19061092c565b3360009081526004602052604090205483106104f65760405162461bcd60e51b81526004016102e190610955565b33600090815260046020526040812080548592906105159084906109b1565b90915550506001600160a01b038416600090815260046020526040812080548592906105429084906109c4565b90915550506040518381526001600160a01b0385169033907fddf252ad1be2c89b69c2b068fc378daa952ba7f163c4a11628f55a4df523b3ef9060200160405180910390a35060019392505050565b6000846001600160a01b0381166105ba5760405162461bcd60e51b81526004016102e19061092c565b336000908152600460205260409020548511156105e95760405162461bcd60e51b81526004016102e190610955565b6105f3868661024b565b6106305760405162461bcd60e51b815260206004820152600e60248201526d185c1c1c9bdd994819985a5b195960921b60448201526064016102e1565b6001600160a01b0386163b1561072d576000866001600160a01b03163387878760405160240161066394939291906109d7565b60408051601f198184030181529181526020820180516001600160e01b031663d031426360e01b179052516106989190610a1f565b6000604051808303816000865af19150503d80600081146106d5576040519150601f19603f3d011682016040523d82523d6000602084013e6106da565b606091505b505090508061072b5760405162461bcd60e51b815260206004820152601a60248201527f746f6b656e7352656365697665642063616c6c206661696c656400000000000060448201526064016102e1565b505b50600195945050505050565b60005b8381101561075457818101518382015260200161073c565b50506000910152565b602081526000825180602084015261077c816040850160208701610739565b601f01601f19169190910160400192915050565b80356001600160a01b03811681146107a757600080fd5b919050565b600080604083850312156107bf57600080fd5b6107c883610790565b946020939093013593505050565b6000806000606084860312156107eb57600080fd5b6107f484610790565b925061080260208501610790565b929592945050506040919091013590565b60006020828403121561082557600080fd5b61082e82610790565b9392505050565b6000806000806060858703121561084b57600080fd5b61085485610790565b935060208501359250604085013567ffffffffffffffff81111561087757600080fd5b8501601f8101871361088857600080fd5b803567ffffffffffffffff81111561089f57600080fd5b8760208284010111156108b157600080fd5b949793965060200194505050565b600080604083850312156108d257600080fd5b6108db83610790565b91506108e960208401610790565b90509250929050565b600181811c9082168061090657607f821691505b60208210810361092657634e487b7160e01b600052602260045260246000fd5b50919050565b6020808252600f908201526e496e76616c6964206164647265737360881b604082015260600190565b60208082526026908201527f45524332303a207472616e7366657220616d6f756e7420657863656564732062604082015265616c616e636560d01b606082015260800190565b634e487b7160e01b600052601160045260246000fd5b818103818111156102b2576102b261099b565b808201808211156102b2576102b261099b565b6001600160a01b0385168152602081018490526060604082018190528101829052818360808301376000818301608090810191909152601f909201601f191601019392505050565b60008251610a31818460208701610739565b919091019291505056fea2646970667358221220993d85f9e4338c83e4e8775b57e03917f21d7f346378ddbba87785e53bc2696064736f6c634300081c0033","linkReferences":{}},"methodIdentifiers":{"allowance(address,address)":"dd62ed3e","approve(address,uint256)":"095ea7b3","balanceOf(address)":"70a08231","decimals()":"313ce567","name()":"06fdde03","symbol()":"95d89b41","totalSupply()":"18160ddd","transfer(address,uint256)":"a9059cbb","transferFrom(address,address,uint256)":"23b872dd","transferWithCallback(address,uint256,bytes)":"d3139195"},"id":0}